{
	"Genesis.sol": {
		"Genesis": {
			"abi": [
				{
					"inputs": [],
					"stateMutability": "payable",
					"type": "constructor"
				},
				{
					"anonymous": false,
					"inputs": [
						{
							"indexed": false,
							"internalType": "string",
							"name": "name",
							"type": "string"
						},
						{
							"indexed": false,
							"internalType": "uint256",
							"name": "birthTime",
							"type": "uint256"
						},
						{
							"indexed": false,
							"internalType": "uint256",
							"name": "confirmedBirthTime",
							"type": "uint256"
						},
						{
							"indexed": false,
							"internalType": "uint256",
							"name": "seedAmount",
							"type": "uint256"
						}
					],
					"name": "Born",
					"type": "event"
				},
				{
					"inputs": [],
					"name": "about",
					"outputs": [
						{
							"internalType": "string",
							"name": "entityName",
							"type": "string"
						},
						{
							"internalType": "string",
							"name": "entityMission",
							"type": "string"
						},
						{
							"internalType": "uint256",
							"name": "birth",
							"type": "uint256"
						},
						{
							"internalType": "uint256",
							"name": "confirmedOnChain",
							"type": "uint256"
						},
						{
							"internalType": "uint256",
							"name": "seed",
							"type": "uint256"
						}
					],
					"stateMutability": "view",
					"type": "function"
				},
				{
					"inputs": [],
					"name": "birthTime",
					"outputs": [
						{
							"internalType": "uint256",
							"name": "birth",
							"type": "uint256"
						},
						{
							"internalType": "uint256",
							"name": "confirmedOnChain",
							"type": "uint256"
						}
					],
					"stateMutability": "view",
					"type": "function"
				},
				{
					"inputs": [],
					"name": "mission",
					"outputs": [
						{
							"internalType": "string",
							"name": "",
							"type": "string"
						}
					],
					"stateMutability": "pure",
					"type": "function"
				},
				{
					"inputs": [],
					"name": "name",
					"outputs": [
						{
							"internalType": "string",
							"name": "",
							"type": "string"
						}
					],
					"stateMutability": "pure",
					"type": "function"
				},
				{
					"inputs": [],
					"name": "seedOffering",
					"outputs": [
						{
							"internalType": "uint256",
							"name": "",
							"type": "uint256"
						}
					],
					"stateMutability": "view",
					"type": "function"
				}
			],
			"devdoc": {
				"author": "Adi",
				"details": "All state is set in the constructor. No state-changing functions exist.",
				"kind": "dev",
				"methods": {},
				"title": "Genesis — This is the immutable founding record of Adaptive Resilience Action",
				"version": 1
			},
			"evm": {
				"assembly": "    /* \"Genesis.sol\":408:3493  contract Genesis {... */\n  mstore(0x40, 0xc0)\n    /* \"Genesis.sol\":2147:2162  block.timestamp */\n  timestamp\n    /* \"Genesis.sol\":2125:2162  _confirmedBirthTime = block.timestamp */\n  0x80\n  dup2\n  dup2\n  mstore\n  pop\n  pop\n    /* \"Genesis.sol\":2186:2195  msg.value */\n  callvalue\n    /* \"Genesis.sol\":2172:2195  _seedAmount = msg.value */\n  0xa0\n  dup2\n  dup2\n  mstore\n  pop\n  pop\n    /* \"Genesis.sol\":2211:2319  Born(... */\n  0x0175bcc68cc24608721c35ea10145883047f7ecb1f798a9327347e7a340cea5c\n    /* \"Genesis.sol\":2229:2233  NAME */\n  mload(0x40)\n  dup1\n  0x40\n  add\n  0x40\n  mstore\n  dup1\n  0x1a\n  dup2\n  mstore\n  0x20\n  add\n  0x416461707469766520526573696c69656e636520416374696f6e000000000000\n  dup2\n  mstore\n  pop\n    /* \"Genesis.sol\":1438:1448  1774236477 */\n  0x69c0b33d\n    /* \"Genesis.sol\":2271:2286  block.timestamp */\n  timestamp\n    /* \"Genesis.sol\":2300:2309  msg.value */\n  callvalue\n    /* \"Genesis.sol\":2211:2319  Born(... */\n  mload(0x40)\n  tag_3\n  swap5\n  swap4\n  swap3\n  swap2\n  swap1\n  tag_4\n  jump\t// in\ntag_3:\n  mload(0x40)\n  dup1\n  swap2\n  sub\n  swap1\n  log1\n    /* \"Genesis.sol\":408:3493  contract Genesis {... */\n  jump(tag_5)\n    /* \"#utility.yul\":7:106   */\ntag_6:\n    /* \"#utility.yul\":59:65   */\n  0x00\n    /* \"#utility.yul\":93:98   */\n  dup2\n    /* \"#utility.yul\":87:99   */\n  mload\n    /* \"#utility.yul\":77:99   */\n  swap1\n  pop\n    /* \"#utility.yul\":7:106   */\n  swap2\n  swap1\n  pop\n  jump\t// out\n    /* \"#utility.yul\":112:281   */\ntag_7:\n    /* \"#utility.yul\":196:207   */\n  0x00\n    /* \"#utility.yul\":230:236   */\n  dup3\n    /* \"#utility.yul\":225:228   */\n  dup3\n    /* \"#utility.yul\":218:237   */\n  mstore\n    /* \"#utility.yul\":270:274   */\n  0x20\n    /* \"#utility.yul\":265:268   */\n  dup3\n    /* \"#utility.yul\":261:275   */\n  add\n    /* \"#utility.yul\":246:275   */\n  swap1\n  pop\n    /* \"#utility.yul\":112:281   */\n  swap3\n  swap2\n  pop\n  pop\n  jump\t// out\n    /* \"#utility.yul\":287:426   */\ntag_8:\n    /* \"#utility.yul\":376:382   */\n  dup3\n    /* \"#utility.yul\":371:374   */\n  dup2\n    /* \"#utility.yul\":366:369   */\n  dup4\n    /* \"#utility.yul\":360:383   */\n  mcopy\n    /* \"#utility.yul\":417:418   */\n  0x00\n    /* \"#utility.yul\":408:414   */\n  dup4\n    /* \"#utility.yul\":403:406   */\n  dup4\n    /* \"#utility.yul\":399:415   */\n  add\n    /* \"#utility.yul\":392:419   */\n  mstore\n    /* \"#utility.yul\":287:426   */\n  pop\n  pop\n  pop\n  jump\t// out\n    /* \"#utility.yul\":432:534   */\ntag_9:\n    /* \"#utility.yul\":473:479   */\n  0x00\n    /* \"#utility.yul\":524:526   */\n  0x1f\n    /* \"#utility.yul\":520:527   */\n  not\n    /* \"#utility.yul\":515:517   */\n  0x1f\n    /* \"#utility.yul\":508:513   */\n  dup4\n    /* \"#utility.yul\":504:518   */\n  add\n    /* \"#utility.yul\":500:528   */\n  and\n    /* \"#utility.yul\":490:528   */\n  swap1\n  pop\n    /* \"#utility.yul\":432:534   */\n  swap2\n  swap1\n  pop\n  jump\t// out\n    /* \"#utility.yul\":540:917   */\ntag_10:\n    /* \"#utility.yul\":628:631   */\n  0x00\n    /* \"#utility.yul\":656:695   */\n  tag_19\n    /* \"#utility.yul\":689:694   */\n  dup3\n    /* \"#utility.yul\":656:695   */\n  tag_6\n  jump\t// in\ntag_19:\n    /* \"#utility.yul\":711:782   */\n  tag_20\n    /* \"#utility.yul\":775:781   */\n  dup2\n    /* \"#utility.yul\":770:773   */\n  dup6\n    /* \"#utility.yul\":711:782   */\n  tag_7\n  jump\t// in\ntag_20:\n    /* \"#utility.yul\":704:782   */\n  swap4\n  pop\n    /* \"#utility.yul\":791:856   */\n  tag_21\n    /* \"#utility.yul\":849:855   */\n  dup2\n    /* \"#utility.yul\":844:847   */\n  dup6\n    /* \"#utility.yul\":837:841   */\n  0x20\n    /* \"#utility.yul\":830:835   */\n  dup7\n    /* \"#utility.yul\":826:842   */\n  add\n    /* \"#utility.yul\":791:856   */\n  tag_8\n  jump\t// in\ntag_21:\n    /* \"#utility.yul\":881:910   */\n  tag_22\n    /* \"#utility.yul\":903:909   */\n  dup2\n    /* \"#utility.yul\":881:910   */\n  tag_9\n  jump\t// in\ntag_22:\n    /* \"#utility.yul\":876:879   */\n  dup5\n    /* \"#utility.yul\":872:911   */\n  add\n    /* \"#utility.yul\":865:911   */\n  swap2\n  pop\n    /* \"#utility.yul\":632:917   */\n  pop\n    /* \"#utility.yul\":540:917   */\n  swap3\n  swap2\n  pop\n  pop\n  jump\t// out\n    /* \"#utility.yul\":923:1000   */\ntag_11:\n    /* \"#utility.yul\":960:967   */\n  0x00\n    /* \"#utility.yul\":989:994   */\n  dup2\n    /* \"#utility.yul\":978:994   */\n  swap1\n  pop\n    /* \"#utility.yul\":923:1000   */\n  swap2\n  swap1\n  pop\n  jump\t// out\n    /* \"#utility.yul\":1006:1124   */\ntag_12:\n    /* \"#utility.yul\":1093:1117   */\n  tag_25\n    /* \"#utility.yul\":1111:1116   */\n  dup2\n    /* \"#utility.yul\":1093:1117   */\n  tag_11\n  jump\t// in\ntag_25:\n    /* \"#utility.yul\":1088:1091   */\n  dup3\n    /* \"#utility.yul\":1081:1118   */\n  mstore\n    /* \"#utility.yul\":1006:1124   */\n  pop\n  pop\n  jump\t// out\n    /* \"#utility.yul\":1130:1774   */\ntag_4:\n    /* \"#utility.yul\":1327:1331   */\n  0x00\n    /* \"#utility.yul\":1365:1368   */\n  0x80\n    /* \"#utility.yul\":1354:1363   */\n  dup3\n    /* \"#utility.yul\":1350:1369   */\n  add\n    /* \"#utility.yul\":1342:1369   */\n  swap1\n  pop\n    /* \"#utility.yul\":1415:1424   */\n  dup2\n    /* \"#utility.yul\":1409:1413   */\n  dup2\n    /* \"#utility.yul\":1405:1425   */\n  sub\n    /* \"#utility.yul\":1401:1402   */\n  0x00\n    /* \"#utility.yul\":1390:1399   */\n  dup4\n    /* \"#utility.yul\":1386:1403   */\n  add\n    /* \"#utility.yul\":1379:1426   */\n  mstore\n    /* \"#utility.yul\":1443:1521   */\n  tag_27\n    /* \"#utility.yul\":1516:1520   */\n  dup2\n    /* \"#utility.yul\":1507:1513   */\n  dup8\n    /* \"#utility.yul\":1443:1521   */\n  tag_10\n  jump\t// in\ntag_27:\n    /* \"#utility.yul\":1435:1521   */\n  swap1\n  pop\n    /* \"#utility.yul\":1531:1603   */\n  tag_28\n    /* \"#utility.yul\":1599:1601   */\n  0x20\n    /* \"#utility.yul\":1588:1597   */\n  dup4\n    /* \"#utility.yul\":1584:1602   */\n  add\n    /* \"#utility.yul\":1575:1581   */\n  dup7\n    /* \"#utility.yul\":1531:1603   */\n  tag_12\n  jump\t// in\ntag_28:\n    /* \"#utility.yul\":1613:1685   */\n  tag_29\n    /* \"#utility.yul\":1681:1683   */\n  0x40\n    /* \"#utility.yul\":1670:1679   */\n  dup4\n    /* \"#utility.yul\":1666:1684   */\n  add\n    /* \"#utility.yul\":1657:1663   */\n  dup6\n    /* \"#utility.yul\":1613:1685   */\n  tag_12\n  jump\t// in\ntag_29:\n    /* \"#utility.yul\":1695:1767   */\n  tag_30\n    /* \"#utility.yul\":1763:1765   */\n  0x60\n    /* \"#utility.yul\":1752:1761   */\n  dup4\n    /* \"#utility.yul\":1748:1766   */\n  add\n    /* \"#utility.yul\":1739:1745   */\n  dup5\n    /* \"#utility.yul\":1695:1767   */\n  tag_12\n  jump\t// in\ntag_30:\n    /* \"#utility.yul\":1130:1774   */\n  swap6\n  swap5\n  pop\n  pop\n  pop\n  pop\n  pop\n  jump\t// out\n    /* \"Genesis.sol\":408:3493  contract Genesis {... */\ntag_5:\n  mload(0x80)\n  mload(0xa0)\n  codecopy(0x00, dataOffset(sub_0), dataSize(sub_0))\n  0x00\n  assignImmutable(\"0x1d3be50b2bb17407dd170f1d5da128d1def30c6b1598d6a629e79b4775265526\")\n  0x00\n  assignImmutable(\"0x789bcdf275fa270780a52ae3b79bb1ce0fda7e0aaad87b57b74bb99ac290714a\")\n  return(0x00, dataSize(sub_0))\nstop\n\nsub_0: assembly {\n        /* \"Genesis.sol\":408:3493  contract Genesis {... */\n      mstore(0x40, 0x80)\n      callvalue\n      dup1\n      iszero\n      tag_1\n      jumpi\n      revert(0x00, 0x00)\n    tag_1:\n      pop\n      jumpi(tag_2, lt(calldatasize, 0x04))\n      shr(0xe0, calldataload(0x00))\n      dup1\n      0x03d07ca9\n      eq\n      tag_3\n      jumpi\n      dup1\n      0x06fdde03\n      eq\n      tag_4\n      jumpi\n      dup1\n      0x17701ee6\n      eq\n      tag_5\n      jumpi\n      dup1\n      0x5e1d5482\n      eq\n      tag_6\n      jumpi\n      dup1\n      0xb07b0a38\n      eq\n      tag_7\n      jumpi\n    tag_2:\n      revert(0x00, 0x00)\n        /* \"Genesis.sol\":2769:2933  function birthTime() external view returns (... */\n    tag_3:\n      tag_8\n      tag_9\n      jump\t// in\n    tag_8:\n      mload(0x40)\n      tag_10\n      swap3\n      swap2\n      swap1\n      tag_11\n      jump\t// in\n    tag_10:\n      mload(0x40)\n      dup1\n      swap2\n      sub\n      swap1\n      return\n        /* \"Genesis.sol\":2500:2582  function name() external pure returns (string memory) {... */\n    tag_4:\n      tag_12\n      tag_13\n      jump\t// in\n    tag_12:\n      mload(0x40)\n      tag_14\n      swap2\n      swap1\n      tag_15\n      jump\t// in\n    tag_14:\n      mload(0x40)\n      dup1\n      swap2\n      sub\n      swap1\n      return\n        /* \"Genesis.sol\":2632:2720  function mission() external pure returns (string memory) {... */\n    tag_5:\n      tag_16\n      tag_17\n      jump\t// in\n    tag_16:\n      mload(0x40)\n      tag_18\n      swap2\n      swap1\n      tag_15\n      jump\t// in\n    tag_18:\n      mload(0x40)\n      dup1\n      swap2\n      sub\n      swap1\n      return\n        /* \"Genesis.sol\":3140:3491  function about() external view returns (... */\n    tag_6:\n      tag_19\n      tag_20\n      jump\t// in\n    tag_19:\n      mload(0x40)\n      tag_21\n      swap6\n      swap5\n      swap4\n      swap3\n      swap2\n      swap1\n      tag_22\n      jump\t// in\n    tag_21:\n      mload(0x40)\n      dup1\n      swap2\n      sub\n      swap1\n      return\n        /* \"Genesis.sol\":3000:3091  function seedOffering() external view returns (uint256) {... */\n    tag_7:\n      tag_23\n      tag_24\n      jump\t// in\n    tag_23:\n      mload(0x40)\n      tag_25\n      swap2\n      swap1\n      tag_26\n      jump\t// in\n    tag_25:\n      mload(0x40)\n      dup1\n      swap2\n      sub\n      swap1\n      return\n        /* \"Genesis.sol\":2769:2933  function birthTime() external view returns (... */\n    tag_9:\n        /* \"Genesis.sol\":2822:2835  uint256 birth */\n      0x00\n        /* \"Genesis.sol\":2845:2869  uint256 confirmedOnChain */\n      0x00\n        /* \"Genesis.sol\":1438:1448  1774236477 */\n      0x69c0b33d\n        /* \"Genesis.sol\":2906:2925  _confirmedBirthTime */\n      immutable(\"0x789bcdf275fa270780a52ae3b79bb1ce0fda7e0aaad87b57b74bb99ac290714a\")\n        /* \"Genesis.sol\":2886:2926  return (BIRTH_TIME, _confirmedBirthTime) */\n      swap2\n      pop\n      swap2\n      pop\n        /* \"Genesis.sol\":2769:2933  function birthTime() external view returns (... */\n      swap1\n      swap2\n      jump\t// out\n        /* \"Genesis.sol\":2500:2582  function name() external pure returns (string memory) {... */\n    tag_13:\n        /* \"Genesis.sol\":2539:2552  string memory */\n      0x60\n        /* \"Genesis.sol\":2571:2575  NAME */\n      mload(0x40)\n      dup1\n      0x40\n      add\n      0x40\n      mstore\n      dup1\n      0x1a\n      dup2\n      mstore\n      0x20\n      add\n      0x416461707469766520526573696c69656e636520416374696f6e000000000000\n      dup2\n      mstore\n      pop\n        /* \"Genesis.sol\":2564:2575  return NAME */\n      swap1\n      pop\n        /* \"Genesis.sol\":2500:2582  function name() external pure returns (string memory) {... */\n      swap1\n      jump\t// out\n        /* \"Genesis.sol\":2632:2720  function mission() external pure returns (string memory) {... */\n    tag_17:\n        /* \"Genesis.sol\":2674:2687  string memory */\n      0x60\n        /* \"Genesis.sol\":2706:2713  MISSION */\n      mload(0x40)\n      dup1\n      0x0240\n      add\n      0x40\n      mstore\n      dup1\n      0x021d\n      dup2\n      mstore\n      0x20\n      add\n      data_582ac75b7886cb983acd60baadb4fbe64d32c9897692aba14f9e2c1424f4464a\n      0x021d\n      swap2\n      codecopy\n        /* \"Genesis.sol\":2699:2713  return MISSION */\n      swap1\n      pop\n        /* \"Genesis.sol\":2632:2720  function mission() external pure returns (string memory) {... */\n      swap1\n      jump\t// out\n        /* \"Genesis.sol\":3140:3491  function about() external view returns (... */\n    tag_20:\n        /* \"Genesis.sol\":3189:3213  string memory entityName */\n      0x60\n        /* \"Genesis.sol\":3223:3250  string memory entityMission */\n      dup1\n        /* \"Genesis.sol\":3260:3273  uint256 birth */\n      0x00\n        /* \"Genesis.sol\":3283:3307  uint256 confirmedOnChain */\n      0x00\n        /* \"Genesis.sol\":3317:3329  uint256 seed */\n      0x00\n        /* \"Genesis.sol\":3367:3371  NAME */\n      mload(0x40)\n      dup1\n      0x40\n      add\n      0x40\n      mstore\n      dup1\n      0x1a\n      dup2\n      mstore\n      0x20\n      add\n      0x416461707469766520526573696c69656e636520416374696f6e000000000000\n      dup2\n      mstore\n      pop\n        /* \"Genesis.sol\":3385:3392  MISSION */\n      mload(0x40)\n      dup1\n      0x0240\n      add\n      0x40\n      mstore\n      dup1\n      0x021d\n      dup2\n      mstore\n      0x20\n      add\n      data_582ac75b7886cb983acd60baadb4fbe64d32c9897692aba14f9e2c1424f4464a\n      0x021d\n      swap2\n      codecopy\n        /* \"Genesis.sol\":1438:1448  1774236477 */\n      0x69c0b33d\n        /* \"Genesis.sol\":3430:3449  _confirmedBirthTime */\n      immutable(\"0x789bcdf275fa270780a52ae3b79bb1ce0fda7e0aaad87b57b74bb99ac290714a\")\n        /* \"Genesis.sol\":3463:3474  _seedAmount */\n      immutable(\"0x1d3be50b2bb17407dd170f1d5da128d1def30c6b1598d6a629e79b4775265526\")\n        /* \"Genesis.sol\":3346:3484  return (... */\n      swap5\n      pop\n      swap5\n      pop\n      swap5\n      pop\n      swap5\n      pop\n      swap5\n      pop\n        /* \"Genesis.sol\":3140:3491  function about() external view returns (... */\n      swap1\n      swap2\n      swap3\n      swap4\n      swap5\n      jump\t// out\n        /* \"Genesis.sol\":3000:3091  function seedOffering() external view returns (uint256) {... */\n    tag_24:\n        /* \"Genesis.sol\":3047:3054  uint256 */\n      0x00\n        /* \"Genesis.sol\":3073:3084  _seedAmount */\n      immutable(\"0x1d3be50b2bb17407dd170f1d5da128d1def30c6b1598d6a629e79b4775265526\")\n        /* \"Genesis.sol\":3066:3084  return _seedAmount */\n      swap1\n      pop\n        /* \"Genesis.sol\":3000:3091  function seedOffering() external view returns (uint256) {... */\n      swap1\n      jump\t// out\n        /* \"#utility.yul\":7:84   */\n    tag_32:\n        /* \"#utility.yul\":44:51   */\n      0x00\n        /* \"#utility.yul\":73:78   */\n      dup2\n        /* \"#utility.yul\":62:78   */\n      swap1\n      pop\n        /* \"#utility.yul\":7:84   */\n      swap2\n      swap1\n      pop\n      jump\t// out\n        /* \"#utility.yul\":90:208   */\n    tag_33:\n        /* \"#utility.yul\":177:201   */\n      tag_42\n        /* \"#utility.yul\":195:200   */\n      dup2\n        /* \"#utility.yul\":177:201   */\n      tag_32\n      jump\t// in\n    tag_42:\n        /* \"#utility.yul\":172:175   */\n      dup3\n        /* \"#utility.yul\":165:202   */\n      mstore\n        /* \"#utility.yul\":90:208   */\n      pop\n      pop\n      jump\t// out\n        /* \"#utility.yul\":214:546   */\n    tag_11:\n        /* \"#utility.yul\":335:339   */\n      0x00\n        /* \"#utility.yul\":373:375   */\n      0x40\n        /* \"#utility.yul\":362:371   */\n      dup3\n        /* \"#utility.yul\":358:376   */\n      add\n        /* \"#utility.yul\":350:376   */\n      swap1\n      pop\n        /* \"#utility.yul\":386:457   */\n      tag_44\n        /* \"#utility.yul\":454:455   */\n      0x00\n        /* \"#utility.yul\":443:452   */\n      dup4\n        /* \"#utility.yul\":439:456   */\n      add\n        /* \"#utility.yul\":430:436   */\n      dup6\n        /* \"#utility.yul\":386:457   */\n      tag_33\n      jump\t// in\n    tag_44:\n        /* \"#utility.yul\":467:539   */\n      tag_45\n        /* \"#utility.yul\":535:537   */\n      0x20\n        /* \"#utility.yul\":524:533   */\n      dup4\n        /* \"#utility.yul\":520:538   */\n      add\n        /* \"#utility.yul\":511:517   */\n      dup5\n        /* \"#utility.yul\":467:539   */\n      tag_33\n      jump\t// in\n    tag_45:\n        /* \"#utility.yul\":214:546   */\n      swap4\n      swap3\n      pop\n      pop\n      pop\n      jump\t// out\n        /* \"#utility.yul\":552:651   */\n    tag_34:\n        /* \"#utility.yul\":604:610   */\n      0x00\n        /* \"#utility.yul\":638:643   */\n      dup2\n        /* \"#utility.yul\":632:644   */\n      mload\n        /* \"#utility.yul\":622:644   */\n      swap1\n      pop\n        /* \"#utility.yul\":552:651   */\n      swap2\n      swap1\n      pop\n      jump\t// out\n        /* \"#utility.yul\":657:826   */\n    tag_35:\n        /* \"#utility.yul\":741:752   */\n      0x00\n        /* \"#utility.yul\":775:781   */\n      dup3\n        /* \"#utility.yul\":770:773   */\n      dup3\n        /* \"#utility.yul\":763:782   */\n      mstore\n        /* \"#utility.yul\":815:819   */\n      0x20\n        /* \"#utility.yul\":810:813   */\n      dup3\n        /* \"#utility.yul\":806:820   */\n      add\n        /* \"#utility.yul\":791:820   */\n      swap1\n      pop\n        /* \"#utility.yul\":657:826   */\n      swap3\n      swap2\n      pop\n      pop\n      jump\t// out\n        /* \"#utility.yul\":832:971   */\n    tag_36:\n        /* \"#utility.yul\":921:927   */\n      dup3\n        /* \"#utility.yul\":916:919   */\n      dup2\n        /* \"#utility.yul\":911:914   */\n      dup4\n        /* \"#utility.yul\":905:928   */\n      mcopy\n        /* \"#utility.yul\":962:963   */\n      0x00\n        /* \"#utility.yul\":953:959   */\n      dup4\n        /* \"#utility.yul\":948:951   */\n      dup4\n        /* \"#utility.yul\":944:960   */\n      add\n        /* \"#utility.yul\":937:964   */\n      mstore\n        /* \"#utility.yul\":832:971   */\n      pop\n      pop\n      pop\n      jump\t// out\n        /* \"#utility.yul\":977:1079   */\n    tag_37:\n        /* \"#utility.yul\":1018:1024   */\n      0x00\n        /* \"#utility.yul\":1069:1071   */\n      0x1f\n        /* \"#utility.yul\":1065:1072   */\n      not\n        /* \"#utility.yul\":1060:1062   */\n      0x1f\n        /* \"#utility.yul\":1053:1058   */\n      dup4\n        /* \"#utility.yul\":1049:1063   */\n      add\n        /* \"#utility.yul\":1045:1073   */\n      and\n        /* \"#utility.yul\":1035:1073   */\n      swap1\n      pop\n        /* \"#utility.yul\":977:1079   */\n      swap2\n      swap1\n      pop\n      jump\t// out\n        /* \"#utility.yul\":1085:1462   */\n    tag_38:\n        /* \"#utility.yul\":1173:1176   */\n      0x00\n        /* \"#utility.yul\":1201:1240   */\n      tag_51\n        /* \"#utility.yul\":1234:1239   */\n      dup3\n        /* \"#utility.yul\":1201:1240   */\n      tag_34\n      jump\t// in\n    tag_51:\n        /* \"#utility.yul\":1256:1327   */\n      tag_52\n        /* \"#utility.yul\":1320:1326   */\n      dup2\n        /* \"#utility.yul\":1315:1318   */\n      dup6\n        /* \"#utility.yul\":1256:1327   */\n      tag_35\n      jump\t// in\n    tag_52:\n        /* \"#utility.yul\":1249:1327   */\n      swap4\n      pop\n        /* \"#utility.yul\":1336:1401   */\n      tag_53\n        /* \"#utility.yul\":1394:1400   */\n      dup2\n        /* \"#utility.yul\":1389:1392   */\n      dup6\n        /* \"#utility.yul\":1382:1386   */\n      0x20\n        /* \"#utility.yul\":1375:1380   */\n      dup7\n        /* \"#utility.yul\":1371:1387   */\n      add\n        /* \"#utility.yul\":1336:1401   */\n      tag_36\n      jump\t// in\n    tag_53:\n        /* \"#utility.yul\":1426:1455   */\n      tag_54\n        /* \"#utility.yul\":1448:1454   */\n      dup2\n        /* \"#utility.yul\":1426:1455   */\n      tag_37\n      jump\t// in\n    tag_54:\n        /* \"#utility.yul\":1421:1424   */\n      dup5\n        /* \"#utility.yul\":1417:1456   */\n      add\n        /* \"#utility.yul\":1410:1456   */\n      swap2\n      pop\n        /* \"#utility.yul\":1177:1462   */\n      pop\n        /* \"#utility.yul\":1085:1462   */\n      swap3\n      swap2\n      pop\n      pop\n      jump\t// out\n        /* \"#utility.yul\":1468:1781   */\n    tag_15:\n        /* \"#utility.yul\":1581:1585   */\n      0x00\n        /* \"#utility.yul\":1619:1621   */\n      0x20\n        /* \"#utility.yul\":1608:1617   */\n      dup3\n        /* \"#utility.yul\":1604:1622   */\n      add\n        /* \"#utility.yul\":1596:1622   */\n      swap1\n      pop\n        /* \"#utility.yul\":1668:1677   */\n      dup2\n        /* \"#utility.yul\":1662:1666   */\n      dup2\n        /* \"#utility.yul\":1658:1678   */\n      sub\n        /* \"#utility.yul\":1654:1655   */\n      0x00\n        /* \"#utility.yul\":1643:1652   */\n      dup4\n        /* \"#utility.yul\":1639:1656   */\n      add\n        /* \"#utility.yul\":1632:1679   */\n      mstore\n        /* \"#utility.yul\":1696:1774   */\n      tag_56\n        /* \"#utility.yul\":1769:1773   */\n      dup2\n        /* \"#utility.yul\":1760:1766   */\n      dup5\n        /* \"#utility.yul\":1696:1774   */\n      tag_38\n      jump\t// in\n    tag_56:\n        /* \"#utility.yul\":1688:1774   */\n      swap1\n      pop\n        /* \"#utility.yul\":1468:1781   */\n      swap3\n      swap2\n      pop\n      pop\n      jump\t// out\n        /* \"#utility.yul\":1787:2633   */\n    tag_22:\n        /* \"#utility.yul\":2032:2036   */\n      0x00\n        /* \"#utility.yul\":2070:2073   */\n      0xa0\n        /* \"#utility.yul\":2059:2068   */\n      dup3\n        /* \"#utility.yul\":2055:2074   */\n      add\n        /* \"#utility.yul\":2047:2074   */\n      swap1\n      pop\n        /* \"#utility.yul\":2120:2129   */\n      dup2\n        /* \"#utility.yul\":2114:2118   */\n      dup2\n        /* \"#utility.yul\":2110:2130   */\n      sub\n        /* \"#utility.yul\":2106:2107   */\n      0x00\n        /* \"#utility.yul\":2095:2104   */\n      dup4\n        /* \"#utility.yul\":2091:2108   */\n      add\n        /* \"#utility.yul\":2084:2131   */\n      mstore\n        /* \"#utility.yul\":2148:2226   */\n      tag_58\n        /* \"#utility.yul\":2221:2225   */\n      dup2\n        /* \"#utility.yul\":2212:2218   */\n      dup9\n        /* \"#utility.yul\":2148:2226   */\n      tag_38\n      jump\t// in\n    tag_58:\n        /* \"#utility.yul\":2140:2226   */\n      swap1\n      pop\n        /* \"#utility.yul\":2273:2282   */\n      dup2\n        /* \"#utility.yul\":2267:2271   */\n      dup2\n        /* \"#utility.yul\":2263:2283   */\n      sub\n        /* \"#utility.yul\":2258:2260   */\n      0x20\n        /* \"#utility.yul\":2247:2256   */\n      dup4\n        /* \"#utility.yul\":2243:2261   */\n      add\n        /* \"#utility.yul\":2236:2284   */\n      mstore\n        /* \"#utility.yul\":2301:2379   */\n      tag_59\n        /* \"#utility.yul\":2374:2378   */\n      dup2\n        /* \"#utility.yul\":2365:2371   */\n      dup8\n        /* \"#utility.yul\":2301:2379   */\n      tag_38\n      jump\t// in\n    tag_59:\n        /* \"#utility.yul\":2293:2379   */\n      swap1\n      pop\n        /* \"#utility.yul\":2389:2461   */\n      tag_60\n        /* \"#utility.yul\":2457:2459   */\n      0x40\n        /* \"#utility.yul\":2446:2455   */\n      dup4\n        /* \"#utility.yul\":2442:2460   */\n      add\n        /* \"#utility.yul\":2433:2439   */\n      dup7\n        /* \"#utility.yul\":2389:2461   */\n      tag_33\n      jump\t// in\n    tag_60:\n        /* \"#utility.yul\":2471:2543   */\n      tag_61\n        /* \"#utility.yul\":2539:2541   */\n      0x60\n        /* \"#utility.yul\":2528:2537   */\n      dup4\n        /* \"#utility.yul\":2524:2542   */\n      add\n        /* \"#utility.yul\":2515:2521   */\n      dup6\n        /* \"#utility.yul\":2471:2543   */\n      tag_33\n      jump\t// in\n    tag_61:\n        /* \"#utility.yul\":2553:2626   */\n      tag_62\n        /* \"#utility.yul\":2621:2624   */\n      0x80\n        /* \"#utility.yul\":2610:2619   */\n      dup4\n        /* \"#utility.yul\":2606:2625   */\n      add\n        /* \"#utility.yul\":2597:2603   */\n      dup5\n        /* \"#utility.yul\":2553:2626   */\n      tag_33\n      jump\t// in\n    tag_62:\n        /* \"#utility.yul\":1787:2633   */\n      swap7\n      swap6\n      pop\n      pop\n      pop\n      pop\n      pop\n      pop\n      jump\t// out\n        /* \"#utility.yul\":2639:2861   */\n    tag_26:\n        /* \"#utility.yul\":2732:2736   */\n      0x00\n        /* \"#utility.yul\":2770:2772   */\n      0x20\n        /* \"#utility.yul\":2759:2768   */\n      dup3\n        /* \"#utility.yul\":2755:2773   */\n      add\n        /* \"#utility.yul\":2747:2773   */\n      swap1\n      pop\n        /* \"#utility.yul\":2783:2854   */\n      tag_64\n        /* \"#utility.yul\":2851:2852   */\n      0x00\n        /* \"#utility.yul\":2840:2849   */\n      dup4\n        /* \"#utility.yul\":2836:2853   */\n      add\n        /* \"#utility.yul\":2827:2833   */\n      dup5\n        /* \"#utility.yul\":2783:2854   */\n      tag_33\n      jump\t// in\n    tag_64:\n        /* \"#utility.yul\":2639:2861   */\n      swap3\n      swap2\n      pop\n      pop\n      jump\t// out\n    stop\n    data_582ac75b7886cb983acd60baadb4fbe64d32c9897692aba14f9e2c1424f4464a 2861292052656c696566206f66206861726473686970207468726f7567682070726f6163746976652066696e616e6369616c2070726f74656374696f6e20616e64207261706964207265636f766572792066756e64696e6720746f20636f6d6d756e697469657320666163696e67206e61747572616c206469736173746572732c20636f6e666c6963742c20616e6420636174617374726f706869632073686f636b732e20286229204275696c64696e672074686520696e737469747574696f6e616c206361706163697479206f662066726f6e746c696e65206f7267616e69736174696f6e7320746f2064657369676e20616e64207375737461696e207468656972206f776e20726573696c69656e63652070726f6772616d6d65732e2028632920416476616e63696e67207075626c6963206b6e6f776c65646765206f66206469736173746572207269736b2c2073797374656d696320726573696c69656e63652c20616e64207468652066696e616e6369616c20746f6f6c732074686174207475726e2076756c6e65726162696c69747920696e746f2070726570617265646e6573732e2028642920526573656172636820696e746f206e6577206d6f64656c7320666f7220636174617374726f70686963207269736b207472616e7366657220616e642073686172696e672065766572792066696e64696e67206f70656e6c792c20666f72207468652062656e65666974206f6620616c6c2e\n\n    auxdata: 0xa2646970667358221220e7fc4db9966e948e2956d2bac9d350e0c46a50e042b6911e3ad45a3a1db547a664736f6c634300081f0033\n}\n",
				"bytecode": {
					"linkReferences": {},
					"object": "60c060405242608081815250503460a081815250507f0175bcc68cc24608721c35ea10145883047f7ecb1f798a9327347e7a340cea5c6040518060400160405280601a81526020017f416461707469766520526573696c69656e636520416374696f6e0000000000008152506369c0b33d42346040516100829493929190610117565b60405180910390a1610161565b5f81519050919050565b5f82825260208201905092915050565b8281835e5f83830152505050565b5f601f19601f8301169050919050565b5f6100d18261008f565b6100db8185610099565b93506100eb8185602086016100a9565b6100f4816100b7565b840191505092915050565b5f819050919050565b610111816100ff565b82525050565b5f6080820190508181035f83015261012f81876100c7565b905061013e6020830186610108565b61014b6040830185610108565b6101586060830184610108565b95945050505050565b60805160a0516105f561018f5f395f8181610204015261023701525f818160fd01526101e301526105f55ff3fe608060405234801561000f575f5ffd5b5060043610610055575f3560e01c806303d07ca91461005957806306fdde031461007857806317701ee6146100965780635e1d5482146100b4578063b07b0a38146100d6575b5f5ffd5b6100616100f4565b60405161006f929190610273565b60405180910390f35b610080610124565b60405161008d919061030a565b60405180910390f35b61009e610161565b6040516100ab919061030a565b60405180910390f35b6100bc610184565b6040516100cd95949392919061032a565b60405180910390f35b6100de610234565b6040516100eb9190610389565b60405180910390f35b5f5f6369c0b33d7f0000000000000000000000000000000000000000000000000000000000000000915091509091565b60606040518060400160405280601a81526020017f416461707469766520526573696c69656e636520416374696f6e000000000000815250905090565b606060405180610240016040528061021d81526020016103a361021d9139905090565b6060805f5f5f6040518060400160405280601a81526020017f416461707469766520526573696c69656e636520416374696f6e00000000000081525060405180610240016040528061021d81526020016103a361021d91396369c0b33d7f00000000000000000000000000000000000000000000000000000000000000007f0000000000000000000000000000000000000000000000000000000000000000945094509450945094509091929394565b5f7f0000000000000000000000000000000000000000000000000000000000000000905090565b5f819050919050565b61026d8161025b565b82525050565b5f6040820190506102865f830185610264565b6102936020830184610264565b9392505050565b5f81519050919050565b5f82825260208201905092915050565b8281835e5f83830152505050565b5f601f19601f8301169050919050565b5f6102dc8261029a565b6102e681856102a4565b93506102f68185602086016102b4565b6102ff816102c2565b840191505092915050565b5f6020820190508181035f83015261032281846102d2565b905092915050565b5f60a0820190508181035f83015261034281886102d2565b9050818103602083015261035681876102d2565b90506103656040830186610264565b6103726060830185610264565b61037f6080830184610264565b9695505050505050565b5f60208201905061039c5f830184610264565b9291505056fe2861292052656c696566206f66206861726473686970207468726f7567682070726f6163746976652066696e616e6369616c2070726f74656374696f6e20616e64207261706964207265636f766572792066756e64696e6720746f20636f6d6d756e697469657320666163696e67206e61747572616c206469736173746572732c20636f6e666c6963742c20616e6420636174617374726f706869632073686f636b732e20286229204275696c64696e672074686520696e737469747574696f6e616c206361706163697479206f662066726f6e746c696e65206f7267616e69736174696f6e7320746f2064657369676e20616e64207375737461696e207468656972206f776e20726573696c69656e63652070726f6772616d6d65732e2028632920416476616e63696e67207075626c6963206b6e6f776c65646765206f66206469736173746572207269736b2c2073797374656d696320726573696c69656e63652c20616e64207468652066696e616e6369616c20746f6f6c732074686174207475726e2076756c6e65726162696c69747920696e746f2070726570617265646e6573732e2028642920526573656172636820696e746f206e6577206d6f64656c7320666f7220636174617374726f70686963207269736b207472616e7366657220616e642073686172696e672065766572792066696e64696e67206f70656e6c792c20666f72207468652062656e65666974206f6620616c6c2ea2646970667358221220e7fc4db9966e948e2956d2bac9d350e0c46a50e042b6911e3ad45a3a1db547a664736f6c634300081f0033",
					"opcodes": "PUSH1 0xC0 PUSH1 0x40 MSTORE TIMESTAMP PUSH1 0x80 DUP2 DUP2 MSTORE POP POP CALLVALUE PUSH1 0xA0 DUP2 DUP2 MSTORE POP POP PUSH32 0x175BCC68CC24608721C35EA10145883047F7ECB1F798A9327347E7A340CEA5C PUSH1 0x40 MLOAD DUP1 PUSH1 0x40 ADD PUSH1 0x40 MSTORE DUP1 PUSH1 0x1A DUP2 MSTORE PUSH1 0x20 ADD PUSH32 0x416461707469766520526573696C69656E636520416374696F6E000000000000 DUP2 MSTORE POP PUSH4 0x69C0B33D TIMESTAMP CALLVALUE PUSH1 0x40 MLOAD PUSH2 0x82 SWAP5 SWAP4 SWAP3 SWAP2 SWAP1 PUSH2 0x117 JUMP JUMPDEST PUSH1 0x40 MLOAD DUP1 SWAP2 SUB SWAP1 LOG1 PUSH2 0x161 JUMP JUMPDEST PUSH0 DUP2 MLOAD SWAP1 POP SWAP2 SWAP1 POP JUMP JUMPDEST PUSH0 DUP3 DUP3 MSTORE PUSH1 0x20 DUP3 ADD SWAP1 POP SWAP3 SWAP2 POP POP JUMP JUMPDEST DUP3 DUP2 DUP4 MCOPY PUSH0 DUP4 DUP4 ADD MSTORE POP POP POP JUMP JUMPDEST PUSH0 PUSH1 0x1F NOT PUSH1 0x1F DUP4 ADD AND SWAP1 POP SWAP2 SWAP1 POP JUMP JUMPDEST PUSH0 PUSH2 0xD1 DUP3 PUSH2 0x8F JUMP JUMPDEST PUSH2 0xDB DUP2 DUP6 PUSH2 0x99 JUMP JUMPDEST SWAP4 POP PUSH2 0xEB DUP2 DUP6 PUSH1 0x20 DUP7 ADD PUSH2 0xA9 JUMP JUMPDEST PUSH2 0xF4 DUP2 PUSH2 0xB7 JUMP JUMPDEST DUP5 ADD SWAP2 POP POP SWAP3 SWAP2 POP POP JUMP JUMPDEST PUSH0 DUP2 SWAP1 POP SWAP2 SWAP1 POP JUMP JUMPDEST PUSH2 0x111 DUP2 PUSH2 0xFF JUMP JUMPDEST DUP3 MSTORE POP POP JUMP JUMPDEST PUSH0 PUSH1 0x80 DUP3 ADD SWAP1 POP DUP2 DUP2 SUB PUSH0 DUP4 ADD MSTORE PUSH2 0x12F DUP2 DUP8 PUSH2 0xC7 JUMP JUMPDEST SWAP1 POP PUSH2 0x13E PUSH1 0x20 DUP4 ADD DUP7 PUSH2 0x108 JUMP JUMPDEST PUSH2 0x14B PUSH1 0x40 DUP4 ADD DUP6 PUSH2 0x108 JUMP JUMPDEST PUSH2 0x158 PUSH1 0x60 DUP4 ADD DUP5 PUSH2 0x108 JUMP JUMPDEST SWAP6 SWAP5 POP POP POP POP POP JUMP JUMPDEST PUSH1 0x80 MLOAD PUSH1 0xA0 MLOAD PUSH2 0x5F5 PUSH2 0x18F PUSH0 CODECOPY PUSH0 DUP2 DUP2 PUSH2 0x204 ADD MSTORE PUSH2 0x237 ADD MSTORE PUSH0 DUP2 DUP2 PUSH1 0xFD ADD MSTORE PUSH2 0x1E3 ADD MSTORE PUSH2 0x5F5 PUSH0 RETURN INVALID PUSH1 0x80 PUSH1 0x40 MSTORE CALLVALUE DUP1 ISZERO PUSH2 0xF JUMPI PUSH0 PUSH0 REVERT JUMPDEST POP PUSH1 0x4 CALLDATASIZE LT PUSH2 0x55 JUMPI PUSH0 CALLDATALOAD PUSH1 0xE0 SHR DUP1 PUSH4 0x3D07CA9 EQ PUSH2 0x59 JUMPI DUP1 PUSH4 0x6FDDE03 EQ PUSH2 0x78 JUMPI DUP1 PUSH4 0x17701EE6 EQ PUSH2 0x96 JUMPI DUP1 PUSH4 0x5E1D5482 EQ PUSH2 0xB4 JUMPI DUP1 PUSH4 0xB07B0A38 EQ PUSH2 0xD6 JUMPI JUMPDEST PUSH0 PUSH0 REVERT JUMPDEST PUSH2 0x61 PUSH2 0xF4 JUMP JUMPDEST PUSH1 0x40 MLOAD PUSH2 0x6F SWAP3 SWAP2 SWAP1 PUSH2 0x273 JUMP JUMPDEST PUSH1 0x40 MLOAD DUP1 SWAP2 SUB SWAP1 RETURN JUMPDEST PUSH2 0x80 PUSH2 0x124 JUMP JUMPDEST PUSH1 0x40 MLOAD PUSH2 0x8D SWAP2 SWAP1 PUSH2 0x30A JUMP JUMPDEST PUSH1 0x40 MLOAD DUP1 SWAP2 SUB SWAP1 RETURN JUMPDEST PUSH2 0x9E PUSH2 0x161 JUMP JUMPDEST PUSH1 0x40 MLOAD PUSH2 0xAB SWAP2 SWAP1 PUSH2 0x30A JUMP JUMPDEST PUSH1 0x40 MLOAD DUP1 SWAP2 SUB SWAP1 RETURN JUMPDEST PUSH2 0xBC PUSH2 0x184 JUMP JUMPDEST PUSH1 0x40 MLOAD PUSH2 0xCD SWAP6 SWAP5 SWAP4 SWAP3 SWAP2 SWAP1 PUSH2 0x32A JUMP JUMPDEST PUSH1 0x40 MLOAD DUP1 SWAP2 SUB SWAP1 RETURN JUMPDEST PUSH2 0xDE PUSH2 0x234 JUMP JUMPDEST PUSH1 0x40 MLOAD PUSH2 0xEB SWAP2 SWAP1 PUSH2 0x389 JUMP JUMPDEST PUSH1 0x40 MLOAD DUP1 SWAP2 SUB SWAP1 RETURN JUMPDEST PUSH0 PUSH0 PUSH4 0x69C0B33D PUSH32 0x0 SWAP2 POP SWAP2 POP SWAP1 SWAP2 JUMP JUMPDEST PUSH1 0x60 PUSH1 0x40 MLOAD DUP1 PUSH1 0x40 ADD PUSH1 0x40 MSTORE DUP1 PUSH1 0x1A DUP2 MSTORE PUSH1 0x20 ADD PUSH32 0x416461707469766520526573696C69656E636520416374696F6E000000000000 DUP2 MSTORE POP SWAP1 POP SWAP1 JUMP JUMPDEST PUSH1 0x60 PUSH1 0x40 MLOAD DUP1 PUSH2 0x240 ADD PUSH1 0x40 MSTORE DUP1 PUSH2 0x21D DUP2 MSTORE PUSH1 0x20 ADD PUSH2 0x3A3 PUSH2 0x21D SWAP2 CODECOPY SWAP1 POP SWAP1 JUMP JUMPDEST PUSH1 0x60 DUP1 PUSH0 PUSH0 PUSH0 PUSH1 0x40 MLOAD DUP1 PUSH1 0x40 ADD PUSH1 0x40 MSTORE DUP1 PUSH1 0x1A DUP2 MSTORE PUSH1 0x20 ADD PUSH32 0x416461707469766520526573696C69656E636520416374696F6E000000000000 DUP2 MSTORE POP PUSH1 0x40 MLOAD DUP1 PUSH2 0x240 ADD PUSH1 0x40 MSTORE DUP1 PUSH2 0x21D DUP2 MSTORE PUSH1 0x20 ADD PUSH2 0x3A3 PUSH2 0x21D SWAP2 CODECOPY PUSH4 0x69C0B33D PUSH32 0x0 PUSH32 0x0 SWAP5 POP SWAP5 POP SWAP5 POP SWAP5 POP SWAP5 POP SWAP1 SWAP2 SWAP3 SWAP4 SWAP5 JUMP JUMPDEST PUSH0 PUSH32 0x0 SWAP1 POP SWAP1 JUMP JUMPDEST PUSH0 DUP2 SWAP1 POP SWAP2 SWAP1 POP JUMP JUMPDEST PUSH2 0x26D DUP2 PUSH2 0x25B JUMP JUMPDEST DUP3 MSTORE POP POP JUMP JUMPDEST PUSH0 PUSH1 0x40 DUP3 ADD SWAP1 POP PUSH2 0x286 PUSH0 DUP4 ADD DUP6 PUSH2 0x264 JUMP JUMPDEST PUSH2 0x293 PUSH1 0x20 DUP4 ADD DUP5 PUSH2 0x264 JUMP JUMPDEST SWAP4 SWAP3 POP POP POP JUMP JUMPDEST PUSH0 DUP2 MLOAD SWAP1 POP SWAP2 SWAP1 POP JUMP JUMPDEST PUSH0 DUP3 DUP3 MSTORE PUSH1 0x20 DUP3 ADD SWAP1 POP SWAP3 SWAP2 POP POP JUMP JUMPDEST DUP3 DUP2 DUP4 MCOPY PUSH0 DUP4 DUP4 ADD MSTORE POP POP POP JUMP JUMPDEST PUSH0 PUSH1 0x1F NOT PUSH1 0x1F DUP4 ADD AND SWAP1 POP SWAP2 SWAP1 POP JUMP JUMPDEST PUSH0 PUSH2 0x2DC DUP3 PUSH2 0x29A JUMP JUMPDEST PUSH2 0x2E6 DUP2 DUP6 PUSH2 0x2A4 JUMP JUMPDEST SWAP4 POP PUSH2 0x2F6 DUP2 DUP6 PUSH1 0x20 DUP7 ADD PUSH2 0x2B4 JUMP JUMPDEST PUSH2 0x2FF DUP2 PUSH2 0x2C2 JUMP JUMPDEST DUP5 ADD SWAP2 POP POP SWAP3 SWAP2 POP POP JUMP JUMPDEST PUSH0 PUSH1 0x20 DUP3 ADD SWAP1 POP DUP2 DUP2 SUB PUSH0 DUP4 ADD MSTORE PUSH2 0x322 DUP2 DUP5 PUSH2 0x2D2 JUMP JUMPDEST SWAP1 POP SWAP3 SWAP2 POP POP JUMP JUMPDEST PUSH0 PUSH1 0xA0 DUP3 ADD SWAP1 POP DUP2 DUP2 SUB PUSH0 DUP4 ADD MSTORE PUSH2 0x342 DUP2 DUP9 PUSH2 0x2D2 JUMP JUMPDEST SWAP1 POP DUP2 DUP2 SUB PUSH1 0x20 DUP4 ADD MSTORE PUSH2 0x356 DUP2 DUP8 PUSH2 0x2D2 JUMP JUMPDEST SWAP1 POP PUSH2 0x365 PUSH1 0x40 DUP4 ADD DUP7 PUSH2 0x264 JUMP JUMPDEST PUSH2 0x372 PUSH1 0x60 DUP4 ADD DUP6 PUSH2 0x264 JUMP JUMPDEST PUSH2 0x37F PUSH1 0x80 DUP4 ADD DUP5 PUSH2 0x264 JUMP JUMPDEST SWAP7 SWAP6 POP POP POP POP POP POP JUMP JUMPDEST PUSH0 PUSH1 0x20 DUP3 ADD SWAP1 POP PUSH2 0x39C PUSH0 DUP4 ADD DUP5 PUSH2 0x264 JUMP JUMPDEST SWAP3 SWAP2 POP POP JUMP INVALID 0x28 PUSH2 0x2920 MSTORE PUSH6 0x6C696566206F PUSH7 0x20686172647368 PUSH10 0x70207468726F75676820 PUSH17 0x726F6163746976652066696E616E636961 PUSH13 0x2070726F74656374696F6E2061 PUSH15 0x64207261706964207265636F766572 PUSH26 0x2066756E64696E6720746F20636F6D6D756E6974696573206661 PUSH4 0x696E6720 PUSH15 0x61747572616C206469736173746572 PUSH20 0x2C20636F6E666C6963742C20616E642063617461 PUSH20 0x74726F706869632073686F636B732E2028622920 TIMESTAMP PUSH22 0x696C64696E672074686520696E737469747574696F6E PUSH2 0x6C20 PUSH4 0x61706163 PUSH10 0x7479206F662066726F6E PUSH21 0x6C696E65206F7267616E69736174696F6E7320746F KECCAK256 PUSH5 0x657369676E KECCAK256 PUSH2 0x6E64 KECCAK256 PUSH20 0x75737461696E207468656972206F776E20726573 PUSH10 0x6C69656E63652070726F PUSH8 0x72616D6D65732E20 0x28 PUSH4 0x29204164 PUSH23 0x616E63696E67207075626C6963206B6E6F776C65646765 KECCAK256 PUSH16 0x66206469736173746572207269736B2C KECCAK256 PUSH20 0x797374656D696320726573696C69656E63652C20 PUSH2 0x6E64 KECCAK256 PUSH21 0x68652066696E616E6369616C20746F6F6C73207468 PUSH2 0x7420 PUSH21 0x75726E2076756C6E65726162696C69747920696E74 PUSH16 0x2070726570617265646E6573732E2028 PUSH5 0x2920526573 PUSH6 0x617263682069 PUSH15 0x746F206E6577206D6F64656C732066 PUSH16 0x7220636174617374726F706869632072 PUSH10 0x736B207472616E736665 PUSH19 0x20616E642073686172696E6720657665727920 PUSH7 0x696E64696E6720 PUSH16 0x70656E6C792C20666F72207468652062 PUSH6 0x6E6566697420 PUSH16 0x6620616C6C2EA2646970667358221220 SWAPN 0xFC 0x4D 0xB9 SWAP7 PUSH15 0x948E2956D2BAC9D350E0C46A50E042 0xB6 SWAP2 CLZ GASPRICE 0xD4 GAS GASPRICE SAR 0xB5 SELFBALANCE 0xA6 PUSH5 0x736F6C6343 STOP ADDMOD 0x1F STOP CALLER "
				},
				"gasEstimates": {
					"creation": {
						"codeDepositCost": "305000",
						"executionCost": "infinite",
						"totalCost": "infinite"
					},
					"external": {
						"about()": "infinite",
						"birthTime()": "infinite",
						"mission()": "infinite",
						"name()": "infinite",
						"seedOffering()": "infinite"
					}
				},
				"methodIdentifiers": {
					"about()": "5e1d5482",
					"birthTime()": "03d07ca9",
					"mission()": "17701ee6",
					"name()": "06fdde03",
					"seedOffering()": "b07b0a38"
				}
			},
			"storageLayout": {
				"storage": [],
				"types": null
			},
			"userdoc": {
				"kind": "user",
				"methods": {
					"about()": {
						"notice": "Tell me about this entity."
					},
					"birthTime()": {
						"notice": "When was this entity born?"
					},
					"mission()": {
						"notice": "Why does this entity exist?"
					},
					"name()": {
						"notice": "What is this entity?"
					},
					"seedOffering()": {
						"notice": "How much was irrevocably sealed at founding?"
					}
				},
				"notice": "This contract has no owner, no admin, and no withdrawal function.         It exists as a permanent, irrevocable founding act on Ethereum.",
				"version": 1
			}
		}
	}
}